{
  "_format": "hh-sol-artifact-1",
  "contractName": "StudentSocietyDAO",
  "sourceName": "contracts/StudentSocietyDAO.sol",
  "abi": [
    {
      "inputs": [],
      "stateMutability": "nonpayable",
      "type": "constructor"
    },
    {
      "anonymous": false,
      "inputs": [
        {
          "indexed": false,
          "internalType": "uint32",
          "name": "proposalIndex",
          "type": "uint32"
        }
      ],
      "name": "ProposalInitiated",
      "type": "event"
    },
    {
      "inputs": [],
      "name": "ACCESS_GAIN",
      "outputs": [
        {
          "internalType": "uint32",
          "name": "",
          "type": "uint32"
        }
      ],
      "stateMutability": "view",
      "type": "function"
    },
    {
      "inputs": [],
      "name": "PROPOSAL_COST",
      "outputs": [
        {
          "internalType": "uint32",
          "name": "",
          "type": "uint32"
        }
      ],
      "stateMutability": "view",
      "type": "function"
    },
    {
      "inputs": [],
      "name": "START_GAIN",
      "outputs": [
        {
          "internalType": "uint32",
          "name": "",
          "type": "uint32"
        }
      ],
      "stateMutability": "view",
      "type": "function"
    },
    {
      "inputs": [],
      "name": "STATE_ACCESS",
      "outputs": [
        {
          "internalType": "uint32",
          "name": "",
          "type": "uint32"
        }
      ],
      "stateMutability": "view",
      "type": "function"
    },
    {
      "inputs": [],
      "name": "STATE_UNACCESS",
      "outputs": [
        {
          "internalType": "uint32",
          "name": "",
          "type": "uint32"
        }
      ],
      "stateMutability": "view",
      "type": "function"
    },
    {
      "inputs": [],
      "name": "STATE_VOTING",
      "outputs": [
        {
          "internalType": "uint32",
          "name": "",
          "type": "uint32"
        }
      ],
      "stateMutability": "view",
      "type": "function"
    },
    {
      "inputs": [],
      "name": "UseLess",
      "outputs": [],
      "stateMutability": "payable",
      "type": "function"
    },
    {
      "inputs": [],
      "name": "VOTE_COST",
      "outputs": [
        {
          "internalType": "uint32",
          "name": "",
          "type": "uint32"
        }
      ],
      "stateMutability": "view",
      "type": "function"
    },
    {
      "inputs": [
        {
          "internalType": "address",
          "name": "",
          "type": "address"
        }
      ],
      "name": "access_proposals_number",
      "outputs": [
        {
          "internalType": "uint32",
          "name": "",
          "type": "uint32"
        }
      ],
      "stateMutability": "view",
      "type": "function"
    },
    {
      "inputs": [],
      "name": "airdrop",
      "outputs": [],
      "stateMutability": "nonpayable",
      "type": "function"
    },
    {
      "inputs": [
        {
          "internalType": "address",
          "name": "account",
          "type": "address"
        }
      ],
      "name": "balanceOf",
      "outputs": [
        {
          "internalType": "uint256",
          "name": "",
          "type": "uint256"
        }
      ],
      "stateMutability": "view",
      "type": "function"
    },
    {
      "inputs": [
        {
          "internalType": "uint256",
          "name": "now_time",
          "type": "uint256"
        }
      ],
      "name": "checkDate",
      "outputs": [],
      "stateMutability": "nonpayable",
      "type": "function"
    },
    {
      "inputs": [
        {
          "internalType": "uint32",
          "name": "index",
          "type": "uint32"
        },
        {
          "internalType": "uint256",
          "name": "now_time",
          "type": "uint256"
        }
      ],
      "name": "dateOver",
      "outputs": [],
      "stateMutability": "nonpayable",
      "type": "function"
    },
    {
      "inputs": [],
      "name": "getTotal",
      "outputs": [
        {
          "internalType": "uint32",
          "name": "",
          "type": "uint32"
        }
      ],
      "stateMutability": "view",
      "type": "function"
    },
    {
      "inputs": [
        {
          "internalType": "uint32",
          "name": "index",
          "type": "uint32"
        }
      ],
      "name": "judgeAccess",
      "outputs": [],
      "stateMutability": "nonpayable",
      "type": "function"
    },
    {
      "inputs": [
        {
          "internalType": "uint256",
          "name": "duration",
          "type": "uint256"
        },
        {
          "internalType": "string",
          "name": "name",
          "type": "string"
        },
        {
          "internalType": "string",
          "name": "introductions",
          "type": "string"
        },
        {
          "internalType": "uint256",
          "name": "start_time",
          "type": "uint256"
        }
      ],
      "name": "proposalInitiate",
      "outputs": [],
      "stateMutability": "nonpayable",
      "type": "function"
    },
    {
      "inputs": [
        {
          "internalType": "uint32",
          "name": "",
          "type": "uint32"
        }
      ],
      "name": "proposals",
      "outputs": [
        {
          "internalType": "uint32",
          "name": "index",
          "type": "uint32"
        },
        {
          "internalType": "address",
          "name": "proposer",
          "type": "address"
        },
        {
          "internalType": "uint256",
          "name": "start_time",
          "type": "uint256"
        },
        {
          "internalType": "uint256",
          "name": "duration",
          "type": "uint256"
        },
        {
          "internalType": "string",
          "name": "name",
          "type": "string"
        },
        {
          "internalType": "string",
          "name": "introductions",
          "type": "string"
        },
        {
          "internalType": "uint32",
          "name": "agree",
          "type": "uint32"
        },
        {
          "internalType": "uint32",
          "name": "disagree",
          "type": "uint32"
        },
        {
          "internalType": "uint32",
          "name": "state",
          "type": "uint32"
        }
      ],
      "stateMutability": "view",
      "type": "function"
    },
    {
      "inputs": [
        {
          "internalType": "uint32",
          "name": "user_choice",
          "type": "uint32"
        },
        {
          "internalType": "uint32",
          "name": "index",
          "type": "uint32"
        },
        {
          "internalType": "uint256",
          "name": "now_time",
          "type": "uint256"
        }
      ],
      "name": "vote",
      "outputs": [],
      "stateMutability": "nonpayable",
      "type": "function"
    },
    {
      "inputs": [
        {
          "internalType": "uint32",
          "name": "",
          "type": "uint32"
        },
        {
          "internalType": "address",
          "name": "",
          "type": "address"
        }
      ],
      "name": "voted_person",
      "outputs": [
        {
          "internalType": "bool",
          "name": "",
          "type": "bool"
        }
      ],
      "stateMutability": "view",
      "type": "function"
    }
  ],
  "bytecode": "0x608060405260008060006101000a81548163ffffffff021916908363ffffffff1602179055503480156200003257600080fd5b506040516200004190620000b0565b6200004c906200016f565b604051809103906000f08015801562000069573d6000803e3d6000fd5b50600060046101000a81548173ffffffffffffffffffffffffffffffffffffffff021916908373ffffffffffffffffffffffffffffffffffffffff160217905550620001a6565b611d1680620022c383390190565b600082825260208201905092915050565b7f6e616d6500000000000000000000000000000000000000000000000000000000600082015250565b600062000107600483620000be565b91506200011482620000cf565b602082019050919050565b7f73796d626f6c0000000000000000000000000000000000000000000000000000600082015250565b600062000157600683620000be565b915062000164826200011f565b602082019050919050565b600060408201905081810360008301526200018a81620000f8565b905081810360208301526200019f8162000148565b9050919050565b61210d80620001b66000396000f3fe6080604052600436106101145760003560e01c8063775a25e3116100a0578063d9bf8c9f11610064578063d9bf8c9f14610386578063f8549117146103b1578063faa36641146103dc578063fac6e44d14610405578063fe71b8ba1461043057610114565b8063775a25e3146102c05780639f7675b6146102eb578063a09923e3146102f5578063b1481ada14610332578063b362dbf61461035b57610114565b8063328c0255116100e7578063328c0255146101db5780633884d635146102185780633c659f811461022f5780634cee5d1e1461025a57806370a082311461028357610114565b8063058e8a1c146101195780631c24869b146101445780632910bf4f1461016d5780632a4910ab14610196575b600080fd5b34801561012557600080fd5b5061012e61045b565b60405161013b9190611650565b60405180910390f35b34801561015057600080fd5b5061016b600480360381019061016691906116e1565b610460565b005b34801561017957600080fd5b50610194600480360381019061018f9190611721565b6104c4565b005b3480156101a257600080fd5b506101bd60048036038101906101b89190611774565b6108d4565b6040516101d29998979695949392919061188a565b60405180910390f35b3480156101e757600080fd5b5061020260048036038101906101fd9190611951565b610a92565b60405161020f91906119ac565b60405180910390f35b34801561022457600080fd5b5061022d610ac1565b005b34801561023b57600080fd5b50610244610c3e565b6040516102519190611650565b60405180910390f35b34801561026657600080fd5b50610281600480360381019061027c91906119c7565b610c43565b005b34801561028f57600080fd5b506102aa60048036038101906102a591906119f4565b610c8b565b6040516102b79190611a21565b60405180910390f35b3480156102cc57600080fd5b506102d5610d3e565b6040516102e29190611650565b60405180910390f35b6102f3610d57565b005b34801561030157600080fd5b5061031c600480360381019061031791906119f4565b610d59565b6040516103299190611650565b60405180910390f35b34801561033e57600080fd5b5061035960048036038101906103549190611774565b610d7c565b005b34801561036757600080fd5b50610370611121565b60405161037d9190611650565b60405180910390f35b34801561039257600080fd5b5061039b611126565b6040516103a89190611650565b60405180910390f35b3480156103bd57600080fd5b506103c661112b565b6040516103d39190611650565b60405180910390f35b3480156103e857600080fd5b5061040360048036038101906103fe9190611b71565b611130565b005b34801561041157600080fd5b5061041a611584565b6040516104279190611650565b60405180910390f35b34801561043c57600080fd5b50610445611589565b6040516104529190611650565b60405180910390f35b603281565b80600360008463ffffffff1663ffffffff16815260200190815260200160002060020154600360008563ffffffff1663ffffffff168152602001908152602001600020600101546104b19190611c3f565b116104c0576104bf82610d7c565b5b5050565b6104ce8282610460565b600063ffffffff16600360008463ffffffff1663ffffffff16815260200190815260200160002060050160089054906101000a900463ffffffff1663ffffffff161461054f576040517f08c379a000000000000000000000000000000000000000000000000000000000815260040161054690611ce1565b60405180910390fd5b60001515600460008463ffffffff1663ffffffff16815260200190815260200160002060003373ffffffffffffffffffffffffffffffffffffffff1673ffffffffffffffffffffffffffffffffffffffff16815260200190815260200160002060009054906101000a900460ff161515146105ff576040517f08c379a00000000000000000000000000000000000000000000000000000000081526004016105f690611d73565b60405180910390fd5b600563ffffffff16600060049054906101000a900473ffffffffffffffffffffffffffffffffffffffff1673ffffffffffffffffffffffffffffffffffffffff166370a08231336040518263ffffffff1660e01b81526004016106629190611d93565b60206040518083038186803b15801561067a57600080fd5b505afa15801561068e573d6000803e3d6000fd5b505050506040513d601f19601f820116820180604052508101906106b29190611dc3565b10156106f3576040517f08c379a00000000000000000000000000000000000000000000000000000000081526004016106ea90611e62565b60405180910390fd5b60018363ffffffff16141561076857600360008363ffffffff1663ffffffff168152602001908152602001600020600501600081819054906101000a900463ffffffff168092919061074490611e82565b91906101000a81548163ffffffff021916908363ffffffff160217905550506107ca565b600360008363ffffffff1663ffffffff168152602001908152602001600020600501600481819054906101000a900463ffffffff16809291906107aa90611e82565b91906101000a81548163ffffffff021916908363ffffffff160217905550505b600060049054906101000a900473ffffffffffffffffffffffffffffffffffffffff1673ffffffffffffffffffffffffffffffffffffffff1663235c8fa73360056040518363ffffffff1660e01b8152600401610828929190611eaf565b600060405180830381600087803b15801561084257600080fd5b505af1158015610856573d6000803e3d6000fd5b505050506001600460008463ffffffff1663ffffffff16815260200190815260200160002060003373ffffffffffffffffffffffffffffffffffffffff1673ffffffffffffffffffffffffffffffffffffffff16815260200190815260200160002060006101000a81548160ff021916908315150217905550505050565b60036020528060005260406000206000915090508060000160009054906101000a900463ffffffff16908060000160049054906101000a900473ffffffffffffffffffffffffffffffffffffffff169080600101549080600201549080600301805461093f90611f07565b80601f016020809104026020016040519081016040528092919081815260200182805461096b90611f07565b80156109b85780601f1061098d576101008083540402835291602001916109b8565b820191906000526020600020905b81548152906001019060200180831161099b57829003601f168201915b5050505050908060040180546109cd90611f07565b80601f01602080910402602001604051908101604052809291908181526020018280546109f990611f07565b8015610a465780601f10610a1b57610100808354040283529160200191610a46565b820191906000526020600020905b815481529060010190602001808311610a2957829003601f168201915b5050505050908060050160009054906101000a900463ffffffff16908060050160049054906101000a900463ffffffff16908060050160089054906101000a900463ffffffff16905089565b60046020528160005260406000206020528060005260406000206000915091509054906101000a900460ff1681565b60001515600260003373ffffffffffffffffffffffffffffffffffffffff1673ffffffffffffffffffffffffffffffffffffffff16815260200190815260200160002060009054906101000a900460ff16151514610b54576040517f08c379a0000000000000000000000000000000000000000000000000000000008152600401610b4b90611f85565b60405180910390fd5b600060049054906101000a900473ffffffffffffffffffffffffffffffffffffffff1673ffffffffffffffffffffffffffffffffffffffff1663d35e29d73360646040518363ffffffff1660e01b8152600401610bb2929190611eaf565b600060405180830381600087803b158015610bcc57600080fd5b505af1158015610be0573d6000803e3d6000fd5b505050506001600260003373ffffffffffffffffffffffffffffffffffffffff1673ffffffffffffffffffffffffffffffffffffffff16815260200190815260200160002060006101000a81548160ff021916908315150217905550565b600181565b60005b60008054906101000a900463ffffffff1663ffffffff168163ffffffff161015610c8757610c748183610460565b8080610c7f90611e82565b915050610c46565b5050565b60008060049054906101000a900473ffffffffffffffffffffffffffffffffffffffff1673ffffffffffffffffffffffffffffffffffffffff166370a08231836040518263ffffffff1660e01b8152600401610ce79190611d93565b60206040518083038186803b158015610cff57600080fd5b505afa158015610d13573d6000803e3d6000fd5b505050506040513d601f19601f82011682018060405250810190610d379190611dc3565b9050919050565b60008060009054906101000a900463ffffffff16905090565b565b60016020528060005260406000206000915054906101000a900463ffffffff1681565b600360008263ffffffff1663ffffffff16815260200190815260200160002060050160049054906101000a900463ffffffff1663ffffffff16600360008363ffffffff1663ffffffff16815260200190815260200160002060050160009054906101000a900463ffffffff1663ffffffff16118015610e395750600063ffffffff16600360008363ffffffff1663ffffffff16815260200190815260200160002060050160089054906101000a900463ffffffff1663ffffffff16145b15611017576001600360008363ffffffff1663ffffffff16815260200190815260200160002060050160086101000a81548163ffffffff021916908363ffffffff160217905550600060049054906101000a900473ffffffffffffffffffffffffffffffffffffffff1673ffffffffffffffffffffffffffffffffffffffff1663d35e29d7600360008463ffffffff1663ffffffff16815260200190815260200160002060000160049054906101000a900473ffffffffffffffffffffffffffffffffffffffff1660326040518363ffffffff1660e01b8152600401610f20929190611eaf565b600060405180830381600087803b158015610f3a57600080fd5b505af1158015610f4e573d6000803e3d6000fd5b5050505060016000600360008463ffffffff1663ffffffff16815260200190815260200160002060000160049054906101000a900473ffffffffffffffffffffffffffffffffffffffff1673ffffffffffffffffffffffffffffffffffffffff1673ffffffffffffffffffffffffffffffffffffffff168152602001908152602001600020600081819054906101000a900463ffffffff1680929190610ff390611e82565b91906101000a81548163ffffffff021916908363ffffffff1602179055505061111e565b600360008263ffffffff1663ffffffff16815260200190815260200160002060050160049054906101000a900463ffffffff1663ffffffff16600360008363ffffffff1663ffffffff16815260200190815260200160002060050160009054906101000a900463ffffffff1663ffffffff16111580156110d55750600063ffffffff16600360008363ffffffff1663ffffffff16815260200190815260200160002060050160089054906101000a900463ffffffff1663ffffffff16145b1561111d576002600360008363ffffffff1663ffffffff16815260200190815260200160002060050160086101000a81548163ffffffff021916908363ffffffff1602179055505b5b50565b601481565b600281565b600081565b60008411611173576040517f08c379a000000000000000000000000000000000000000000000000000000000815260040161116a90611ff1565b60405180910390fd5b60008390506000815114156111bd576040517f08c379a00000000000000000000000000000000000000000000000000000000081526004016111b49061205d565b60405180910390fd5b601463ffffffff16600060049054906101000a900473ffffffffffffffffffffffffffffffffffffffff1673ffffffffffffffffffffffffffffffffffffffff166370a08231336040518263ffffffff1660e01b81526004016112209190611d93565b60206040518083038186803b15801561123857600080fd5b505afa15801561124c573d6000803e3d6000fd5b505050506040513d601f19601f820116820180604052508101906112709190611dc3565b10156112b1576040517f08c379a00000000000000000000000000000000000000000000000000000000081526004016112a890611e62565b60405180910390fd5b61ea60856112bf919061207d565b9450600060049054906101000a900473ffffffffffffffffffffffffffffffffffffffff1673ffffffffffffffffffffffffffffffffffffffff1663235c8fa73360146040518363ffffffff1660e01b815260040161131f929190611eaf565b600060405180830381600087803b15801561133957600080fd5b505af115801561134d573d6000803e3d6000fd5b50505050600060405180610120016040528060008054906101000a900463ffffffff1663ffffffff1681526020013373ffffffffffffffffffffffffffffffffffffffff168152602001848152602001878152602001868152602001858152602001600063ffffffff168152602001600063ffffffff168152602001600063ffffffff16815250905080600360008060009054906101000a900463ffffffff1663ffffffff1663ffffffff16815260200190815260200160002060008201518160000160006101000a81548163ffffffff021916908363ffffffff16021790555060208201518160000160046101000a81548173ffffffffffffffffffffffffffffffffffffffff021916908373ffffffffffffffffffffffffffffffffffffffff160217905550604082015181600101556060820151816002015560808201518160030190805190602001906114a592919061158e565b5060a08201518160040190805190602001906114c292919061158e565b5060c08201518160050160006101000a81548163ffffffff021916908363ffffffff16021790555060e08201518160050160046101000a81548163ffffffff021916908363ffffffff1602179055506101008201518160050160086101000a81548163ffffffff021916908363ffffffff16021790555090505060008081819054906101000a900463ffffffff168092919061155d90611e82565b91906101000a81548163ffffffff021916908363ffffffff16021790555050505050505050565b606481565b600581565b82805461159a90611f07565b90600052602060002090601f0160209004810192826115bc5760008555611603565b82601f106115d557805160ff1916838001178555611603565b82800160010185558215611603579182015b828111156116025782518255916020019190600101906115e7565b5b5090506116109190611614565b5090565b5b8082111561162d576000816000905550600101611615565b5090565b600063ffffffff82169050919050565b61164a81611631565b82525050565b60006020820190506116656000830184611641565b92915050565b6000604051905090565b600080fd5b600080fd5b61168881611631565b811461169357600080fd5b50565b6000813590506116a58161167f565b92915050565b6000819050919050565b6116be816116ab565b81146116c957600080fd5b50565b6000813590506116db816116b5565b92915050565b600080604083850312156116f8576116f7611675565b5b600061170685828601611696565b9250506020611717858286016116cc565b9150509250929050565b60008060006060848603121561173a57611739611675565b5b600061174886828701611696565b935050602061175986828701611696565b925050604061176a868287016116cc565b9150509250925092565b60006020828403121561178a57611789611675565b5b600061179884828501611696565b91505092915050565b600073ffffffffffffffffffffffffffffffffffffffff82169050919050565b60006117cc826117a1565b9050919050565b6117dc816117c1565b82525050565b6117eb816116ab565b82525050565b600081519050919050565b600082825260208201905092915050565b60005b8381101561182b578082015181840152602081019050611810565b8381111561183a576000848401525b50505050565b6000601f19601f8301169050919050565b600061185c826117f1565b61186681856117fc565b935061187681856020860161180d565b61187f81611840565b840191505092915050565b6000610120820190506118a0600083018c611641565b6118ad602083018b6117d3565b6118ba604083018a6117e2565b6118c760608301896117e2565b81810360808301526118d98188611851565b905081810360a08301526118ed8187611851565b90506118fc60c0830186611641565b61190960e0830185611641565b611917610100830184611641565b9a9950505050505050505050565b61192e816117c1565b811461193957600080fd5b50565b60008135905061194b81611925565b92915050565b6000806040838503121561196857611967611675565b5b600061197685828601611696565b92505060206119878582860161193c565b9150509250929050565b60008115159050919050565b6119a681611991565b82525050565b60006020820190506119c1600083018461199d565b92915050565b6000602082840312156119dd576119dc611675565b5b60006119eb848285016116cc565b91505092915050565b600060208284031215611a0a57611a09611675565b5b6000611a188482850161193c565b91505092915050565b6000602082019050611a3660008301846117e2565b92915050565b600080fd5b600080fd5b7f4e487b7100000000000000000000000000000000000000000000000000000000600052604160045260246000fd5b611a7e82611840565b810181811067ffffffffffffffff82111715611a9d57611a9c611a46565b5b80604052505050565b6000611ab061166b565b9050611abc8282611a75565b919050565b600067ffffffffffffffff821115611adc57611adb611a46565b5b611ae582611840565b9050602081019050919050565b82818337600083830152505050565b6000611b14611b0f84611ac1565b611aa6565b905082815260208101848484011115611b3057611b2f611a41565b5b611b3b848285611af2565b509392505050565b600082601f830112611b5857611b57611a3c565b5b8135611b68848260208601611b01565b91505092915050565b60008060008060808587031215611b8b57611b8a611675565b5b6000611b99878288016116cc565b945050602085013567ffffffffffffffff811115611bba57611bb961167a565b5b611bc687828801611b43565b935050604085013567ffffffffffffffff811115611be757611be661167a565b5b611bf387828801611b43565b9250506060611c04878288016116cc565b91505092959194509250565b7f4e487b7100000000000000000000000000000000000000000000000000000000600052601160045260246000fd5b6000611c4a826116ab565b9150611c55836116ab565b9250827fffffffffffffffffffffffffffffffffffffffffffffffffffffffffffffffff03821115611c8a57611c89611c10565b5b828201905092915050565b7f546869732070726f706f73616c277320766f74696e6720697320656e64656421600082015250565b6000611ccb6020836117fc565b9150611cd682611c95565b602082019050919050565b60006020820190508181036000830152611cfa81611cbe565b9050919050565b7f596f75206861766520766f74656420666f7220746869732070726f706f73616c60008201527f206265666f726521000000000000000000000000000000000000000000000000602082015250565b6000611d5d6028836117fc565b9150611d6882611d01565b604082019050919050565b60006020820190508181036000830152611d8c81611d50565b9050919050565b6000602082019050611da860008301846117d3565b92915050565b600081519050611dbd816116b5565b92915050565b600060208284031215611dd957611dd8611675565b5b6000611de784828501611dae565b91505092915050565b7f596f75206d6f6e657920696e206163636f756e74206973206e6f7420656e6f7560008201527f6768210000000000000000000000000000000000000000000000000000000000602082015250565b6000611e4c6023836117fc565b9150611e5782611df0565b604082019050919050565b60006020820190508181036000830152611e7b81611e3f565b9050919050565b6000611e8d82611631565b915063ffffffff821415611ea457611ea3611c10565b5b600182019050919050565b6000604082019050611ec460008301856117d3565b611ed16020830184611641565b9392505050565b7f4e487b7100000000000000000000000000000000000000000000000000000000600052602260045260246000fd5b60006002820490506001821680611f1f57607f821691505b60208210811415611f3357611f32611ed8565b5b50919050565b7f596f75206861766520676f742061697264726f70206265666f72650000000000600082015250565b6000611f6f601b836117fc565b9150611f7a82611f39565b602082019050919050565b60006020820190508181036000830152611f9e81611f62565b9050919050565b7f4475726174696f6e2063616e2774206265206c657373207468616e2030210000600082015250565b6000611fdb601e836117fc565b9150611fe682611fa5565b602082019050919050565b6000602082019050818103600083015261200a81611fce565b9050919050565b7f4e616d652063616e277420626520766f69642100000000000000000000000000600082015250565b60006120476013836117fc565b915061205282612011565b602082019050919050565b600060208201905081810360008301526120768161203a565b9050919050565b6000612088826116ab565b9150612093836116ab565b9250817fffffffffffffffffffffffffffffffffffffffffffffffffffffffffffffffff04831182151516156120cc576120cb611c10565b5b82820290509291505056fea2646970667358221220d994c08684558a3841d9fd6b93cb63c6fd66078963f6b4324a81dee2af43b50764736f6c6343000809003360806040523480156200001157600080fd5b5060405162001d1638038062001d16833981810160405281019062000037919062000303565b8181816003908051906020019062000051929190620000b6565b5080600490805190602001906200006a929190620000b6565b50505033600660006101000a81548173ffffffffffffffffffffffffffffffffffffffff021916908373ffffffffffffffffffffffffffffffffffffffff1602179055505050620003ed565b828054620000c490620003b7565b90600052602060002090601f016020900481019282620000e8576000855562000134565b82601f106200010357805160ff191683800117855562000134565b8280016001018555821562000134579182015b828111156200013357825182559160200191906001019062000116565b5b50905062000143919062000147565b5090565b5b808211156200016257600081600090555060010162000148565b5090565b6000604051905090565b600080fd5b600080fd5b600080fd5b600080fd5b6000601f19601f8301169050919050565b7f4e487b7100000000000000000000000000000000000000000000000000000000600052604160045260246000fd5b620001cf8262000184565b810181811067ffffffffffffffff82111715620001f157620001f062000195565b5b80604052505050565b60006200020662000166565b9050620002148282620001c4565b919050565b600067ffffffffffffffff82111562000237576200023662000195565b5b620002428262000184565b9050602081019050919050565b60005b838110156200026f57808201518184015260208101905062000252565b838111156200027f576000848401525b50505050565b60006200029c620002968462000219565b620001fa565b905082815260208101848484011115620002bb57620002ba6200017f565b5b620002c88482856200024f565b509392505050565b600082601f830112620002e857620002e76200017a565b5b8151620002fa84826020860162000285565b91505092915050565b600080604083850312156200031d576200031c62000170565b5b600083015167ffffffffffffffff8111156200033e576200033d62000175565b5b6200034c85828601620002d0565b925050602083015167ffffffffffffffff81111562000370576200036f62000175565b5b6200037e85828601620002d0565b9150509250929050565b7f4e487b7100000000000000000000000000000000000000000000000000000000600052602260045260246000fd5b60006002820490506001821680620003d057607f821691505b60208210811415620003e757620003e662000388565b5b50919050565b61191980620003fd6000396000f3fe608060405234801561001057600080fd5b50600436106100cf5760003560e01c8063395093511161008c578063a457c2d711610066578063a457c2d714610228578063a9059cbb14610258578063d35e29d714610288578063dd62ed3e146102a4576100cf565b806339509351146101aa57806370a08231146101da57806395d89b411461020a576100cf565b806306fdde03146100d4578063095ea7b3146100f257806318160ddd14610122578063235c8fa71461014057806323b872dd1461015c578063313ce5671461018c575b600080fd5b6100dc6102d4565b6040516100e99190610f93565b60405180910390f35b61010c6004803603810190610107919061104e565b610366565b60405161011991906110a9565b60405180910390f35b61012a610389565b60405161013791906110d3565b60405180910390f35b61015a6004803603810190610155919061112a565b610393565b005b6101766004803603810190610171919061116a565b610401565b60405161018391906110a9565b60405180910390f35b610194610430565b6040516101a191906111d9565b60405180910390f35b6101c460048036038101906101bf919061104e565b610439565b6040516101d191906110a9565b60405180910390f35b6101f460048036038101906101ef91906111f4565b610470565b60405161020191906110d3565b60405180910390f35b6102126104b8565b60405161021f9190610f93565b60405180910390f35b610242600480360381019061023d919061104e565b61054a565b60405161024f91906110a9565b60405180910390f35b610272600480360381019061026d919061104e565b6105c1565b60405161027f91906110a9565b60405180910390f35b6102a2600480360381019061029d919061112a565b6105e4565b005b6102be60048036038101906102b99190611221565b610652565b6040516102cb91906110d3565b60405180910390f35b6060600380546102e390611290565b80601f016020809104026020016040519081016040528092919081815260200182805461030f90611290565b801561035c5780601f106103315761010080835404028352916020019161035c565b820191906000526020600020905b81548152906001019060200180831161033f57829003601f168201915b5050505050905090565b6000806103716106d9565b905061037e8185856106e1565b600191505092915050565b6000600254905090565b600660009054906101000a900473ffffffffffffffffffffffffffffffffffffffff1673ffffffffffffffffffffffffffffffffffffffff163373ffffffffffffffffffffffffffffffffffffffff16146103ed57600080fd5b6103fd828263ffffffff166108ac565b5050565b60008061040c6106d9565b9050610419858285610a83565b610424858585610b0f565b60019150509392505050565b60006012905090565b6000806104446106d9565b90506104658185856104568589610652565b61046091906112f1565b6106e1565b600191505092915050565b60008060008373ffffffffffffffffffffffffffffffffffffffff1673ffffffffffffffffffffffffffffffffffffffff168152602001908152602001600020549050919050565b6060600480546104c790611290565b80601f01602080910402602001604051908101604052809291908181526020018280546104f390611290565b80156105405780601f1061051557610100808354040283529160200191610540565b820191906000526020600020905b81548152906001019060200180831161052357829003601f168201915b5050505050905090565b6000806105556106d9565b905060006105638286610652565b9050838110156105a8576040517f08c379a000000000000000000000000000000000000000000000000000000000815260040161059f906113b9565b60405180910390fd5b6105b582868684036106e1565b60019250505092915050565b6000806105cc6106d9565b90506105d9818585610b0f565b600191505092915050565b600660009054906101000a900473ffffffffffffffffffffffffffffffffffffffff1673ffffffffffffffffffffffffffffffffffffffff163373ffffffffffffffffffffffffffffffffffffffff161461063e57600080fd5b61064e828263ffffffff16610d90565b5050565b6000600160008473ffffffffffffffffffffffffffffffffffffffff1673ffffffffffffffffffffffffffffffffffffffff16815260200190815260200160002060008373ffffffffffffffffffffffffffffffffffffffff1673ffffffffffffffffffffffffffffffffffffffff16815260200190815260200160002054905092915050565b600033905090565b600073ffffffffffffffffffffffffffffffffffffffff168373ffffffffffffffffffffffffffffffffffffffff161415610751576040517f08c379a00000000000000000000000000000000000000000000000000000000081526004016107489061144b565b60405180910390fd5b600073ffffffffffffffffffffffffffffffffffffffff168273ffffffffffffffffffffffffffffffffffffffff1614156107c1576040517f08c379a00000000000000000000000000000000000000000000000000000000081526004016107b8906114dd565b60405180910390fd5b80600160008573ffffffffffffffffffffffffffffffffffffffff1673ffffffffffffffffffffffffffffffffffffffff16815260200190815260200160002060008473ffffffffffffffffffffffffffffffffffffffff1673ffffffffffffffffffffffffffffffffffffffff168152602001908152602001600020819055508173ffffffffffffffffffffffffffffffffffffffff168373ffffffffffffffffffffffffffffffffffffffff167f8c5be1e5ebec7d5bd14f71427d1e84f3dd0314c0f7b2291e5b200ac8c7c3b9258360405161089f91906110d3565b60405180910390a3505050565b600073ffffffffffffffffffffffffffffffffffffffff168273ffffffffffffffffffffffffffffffffffffffff16141561091c576040517f08c379a00000000000000000000000000000000000000000000000000000000081526004016109139061156f565b60405180910390fd5b61092882600083610ef0565b60008060008473ffffffffffffffffffffffffffffffffffffffff1673ffffffffffffffffffffffffffffffffffffffff168152602001908152602001600020549050818110156109ae576040517f08c379a00000000000000000000000000000000000000000000000000000000081526004016109a590611601565b60405180910390fd5b8181036000808573ffffffffffffffffffffffffffffffffffffffff1673ffffffffffffffffffffffffffffffffffffffff168152602001908152602001600020819055508160026000828254610a059190611621565b92505081905550600073ffffffffffffffffffffffffffffffffffffffff168373ffffffffffffffffffffffffffffffffffffffff167fddf252ad1be2c89b69c2b068fc378daa952ba7f163c4a11628f55a4df523b3ef84604051610a6a91906110d3565b60405180910390a3610a7e83600084610ef5565b505050565b6000610a8f8484610652565b90507fffffffffffffffffffffffffffffffffffffffffffffffffffffffffffffffff8114610b095781811015610afb576040517f08c379a0000000000000000000000000000000000000000000000000000000008152600401610af2906116a1565b60405180910390fd5b610b0884848484036106e1565b5b50505050565b600073ffffffffffffffffffffffffffffffffffffffff168373ffffffffffffffffffffffffffffffffffffffff161415610b7f576040517f08c379a0000000000000000000000000000000000000000000000000000000008152600401610b7690611733565b60405180910390fd5b600073ffffffffffffffffffffffffffffffffffffffff168273ffffffffffffffffffffffffffffffffffffffff161415610bef576040517f08c379a0000000000000000000000000000000000000000000000000000000008152600401610be6906117c5565b60405180910390fd5b610bfa838383610ef0565b60008060008573ffffffffffffffffffffffffffffffffffffffff1673ffffffffffffffffffffffffffffffffffffffff16815260200190815260200160002054905081811015610c80576040517f08c379a0000000000000000000000000000000000000000000000000000000008152600401610c7790611857565b60405180910390fd5b8181036000808673ffffffffffffffffffffffffffffffffffffffff1673ffffffffffffffffffffffffffffffffffffffff16815260200190815260200160002081905550816000808573ffffffffffffffffffffffffffffffffffffffff1673ffffffffffffffffffffffffffffffffffffffff1681526020019081526020016000206000828254610d1391906112f1565b925050819055508273ffffffffffffffffffffffffffffffffffffffff168473ffffffffffffffffffffffffffffffffffffffff167fddf252ad1be2c89b69c2b068fc378daa952ba7f163c4a11628f55a4df523b3ef84604051610d7791906110d3565b60405180910390a3610d8a848484610ef5565b50505050565b600073ffffffffffffffffffffffffffffffffffffffff168273ffffffffffffffffffffffffffffffffffffffff161415610e00576040517f08c379a0000000000000000000000000000000000000000000000000000000008152600401610df7906118c3565b60405180910390fd5b610e0c60008383610ef0565b8060026000828254610e1e91906112f1565b92505081905550806000808473ffffffffffffffffffffffffffffffffffffffff1673ffffffffffffffffffffffffffffffffffffffff1681526020019081526020016000206000828254610e7391906112f1565b925050819055508173ffffffffffffffffffffffffffffffffffffffff16600073ffffffffffffffffffffffffffffffffffffffff167fddf252ad1be2c89b69c2b068fc378daa952ba7f163c4a11628f55a4df523b3ef83604051610ed891906110d3565b60405180910390a3610eec60008383610ef5565b5050565b505050565b505050565b600081519050919050565b600082825260208201905092915050565b60005b83811015610f34578082015181840152602081019050610f19565b83811115610f43576000848401525b50505050565b6000601f19601f8301169050919050565b6000610f6582610efa565b610f6f8185610f05565b9350610f7f818560208601610f16565b610f8881610f49565b840191505092915050565b60006020820190508181036000830152610fad8184610f5a565b905092915050565b600080fd5b600073ffffffffffffffffffffffffffffffffffffffff82169050919050565b6000610fe582610fba565b9050919050565b610ff581610fda565b811461100057600080fd5b50565b60008135905061101281610fec565b92915050565b6000819050919050565b61102b81611018565b811461103657600080fd5b50565b60008135905061104881611022565b92915050565b6000806040838503121561106557611064610fb5565b5b600061107385828601611003565b925050602061108485828601611039565b9150509250929050565b60008115159050919050565b6110a38161108e565b82525050565b60006020820190506110be600083018461109a565b92915050565b6110cd81611018565b82525050565b60006020820190506110e860008301846110c4565b92915050565b600063ffffffff82169050919050565b611107816110ee565b811461111257600080fd5b50565b600081359050611124816110fe565b92915050565b6000806040838503121561114157611140610fb5565b5b600061114f85828601611003565b925050602061116085828601611115565b9150509250929050565b60008060006060848603121561118357611182610fb5565b5b600061119186828701611003565b93505060206111a286828701611003565b92505060406111b386828701611039565b9150509250925092565b600060ff82169050919050565b6111d3816111bd565b82525050565b60006020820190506111ee60008301846111ca565b92915050565b60006020828403121561120a57611209610fb5565b5b600061121884828501611003565b91505092915050565b6000806040838503121561123857611237610fb5565b5b600061124685828601611003565b925050602061125785828601611003565b9150509250929050565b7f4e487b7100000000000000000000000000000000000000000000000000000000600052602260045260246000fd5b600060028204905060018216806112a857607f821691505b602082108114156112bc576112bb611261565b5b50919050565b7f4e487b7100000000000000000000000000000000000000000000000000000000600052601160045260246000fd5b60006112fc82611018565b915061130783611018565b9250827fffffffffffffffffffffffffffffffffffffffffffffffffffffffffffffffff0382111561133c5761133b6112c2565b5b828201905092915050565b7f45524332303a2064656372656173656420616c6c6f77616e63652062656c6f7760008201527f207a65726f000000000000000000000000000000000000000000000000000000602082015250565b60006113a3602583610f05565b91506113ae82611347565b604082019050919050565b600060208201905081810360008301526113d281611396565b9050919050565b7f45524332303a20617070726f76652066726f6d20746865207a65726f2061646460008201527f7265737300000000000000000000000000000000000000000000000000000000602082015250565b6000611435602483610f05565b9150611440826113d9565b604082019050919050565b6000602082019050818103600083015261146481611428565b9050919050565b7f45524332303a20617070726f766520746f20746865207a65726f20616464726560008201527f7373000000000000000000000000000000000000000000000000000000000000602082015250565b60006114c7602283610f05565b91506114d28261146b565b604082019050919050565b600060208201905081810360008301526114f6816114ba565b9050919050565b7f45524332303a206275726e2066726f6d20746865207a65726f2061646472657360008201527f7300000000000000000000000000000000000000000000000000000000000000602082015250565b6000611559602183610f05565b9150611564826114fd565b604082019050919050565b600060208201905081810360008301526115888161154c565b9050919050565b7f45524332303a206275726e20616d6f756e7420657863656564732062616c616e60008201527f6365000000000000000000000000000000000000000000000000000000000000602082015250565b60006115eb602283610f05565b91506115f68261158f565b604082019050919050565b6000602082019050818103600083015261161a816115de565b9050919050565b600061162c82611018565b915061163783611018565b92508282101561164a576116496112c2565b5b828203905092915050565b7f45524332303a20696e73756666696369656e7420616c6c6f77616e6365000000600082015250565b600061168b601d83610f05565b915061169682611655565b602082019050919050565b600060208201905081810360008301526116ba8161167e565b9050919050565b7f45524332303a207472616e736665722066726f6d20746865207a65726f20616460008201527f6472657373000000000000000000000000000000000000000000000000000000602082015250565b600061171d602583610f05565b9150611728826116c1565b604082019050919050565b6000602082019050818103600083015261174c81611710565b9050919050565b7f45524332303a207472616e7366657220746f20746865207a65726f206164647260008201527f6573730000000000000000000000000000000000000000000000000000000000602082015250565b60006117af602383610f05565b91506117ba82611753565b604082019050919050565b600060208201905081810360008301526117de816117a2565b9050919050565b7f45524332303a207472616e7366657220616d6f756e742065786365656473206260008201527f616c616e63650000000000000000000000000000000000000000000000000000602082015250565b6000611841602683610f05565b915061184c826117e5565b604082019050919050565b6000602082019050818103600083015261187081611834565b9050919050565b7f45524332303a206d696e7420746f20746865207a65726f206164647265737300600082015250565b60006118ad601f83610f05565b91506118b882611877565b602082019050919050565b600060208201905081810360008301526118dc816118a0565b905091905056fea264697066735822122082d9be0d2f43c7be15ca79c5fe140b96b438cd2733d3a0cada9d2619039462db64736f6c63430008090033",
  "linkReferences": {},
  "deployedLinkReferences": {}
}